{
    "_format": "hh-sol-artifact-1",
    "contractName": "Proof",
    "sourceName": "contracts/Proof.sol",
    "abi": [
        {
            "anonymous": false,
            "inputs": [
                {
                    "indexed": false,
                    "internalType": "bool",
                    "name": "status",
                    "type": "bool"
                },
                {
                    "indexed": false,
                    "internalType": "uint256",
                    "name": "timestamp",
                    "type": "uint256"
                },
                {
                    "indexed": false,
                    "internalType": "string",
                    "name": "owner",
                    "type": "string"
                },
                {
                    "indexed": false,
                    "internalType": "string",
                    "name": "fileHash",
                    "type": "string"
                }
            ],
            "name": "logFileAddedStatus",
            "type": "event"
        },
        {
            "inputs": [
                {
                    "internalType": "string",
                    "name": "",
                    "type": "string"
                }
            ],
            "name": "files",
            "outputs": [
                {
                    "internalType": "uint256",
                    "name": "timestamp",
                    "type": "uint256"
                },
                {
                    "internalType": "string",
                    "name": "owner",
                    "type": "string"
                }
            ],
            "stateMutability": "view",
            "type": "function"
        },
        {
            "inputs": [
                {
                    "internalType": "string",
                    "name": "_owner",
                    "type": "string"
                },
                {
                    "internalType": "string",
                    "name": "_filehash",
                    "type": "string"
                }
            ],
            "name": "set",
            "outputs": [],
            "stateMutability": "nonpayable",
            "type": "function"
        }
    ],
    "bytecode": "0x608060405234801561001057600080fd5b5061081f806100206000396000f3fe608060405234801561001057600080fd5b50600436106100365760003560e01c8063e77557611461003b578063e942b5161461006c575b600080fd5b61005560048036038101906100509190610492565b610088565b6040516100639291906105f4565b60405180910390f35b61008660048036038101906100819190610411565b61014a565b005b6000818051602081018201805184825260208301602085012081835280955050505050506000915090508060000154908060010180546100c7906106f9565b80601f01602080910402602001604051908101604052809291908181526020018280546100f3906106f9565b80156101405780601f1061011557610100808354040283529160200191610140565b820191906000526020600020905b81548152906001019060200180831161012357829003601f168201915b5050505050905082565b600080838360405161015d929190610584565b908152602001604051809103902060000154141561025f57604051806040016040528042815260200185858080601f016020809104026020016040519081016040528093929190818152602001838380828437600081840152601f19601f82011690508083019250505050505050815250600083836040516101e0929190610584565b90815260200160405180910390206000820151816000015560208201518160010190805190602001906102149291906102a8565b509050507f0d3bbc3c02da6ed436712ca1a0f626f1269df703a105f034e4637c7b10fb7ba5600142868686866040516102529695949392919061059d565b60405180910390a16102a2565b7f0d3bbc3c02da6ed436712ca1a0f626f1269df703a105f034e4637c7b10fb7ba5600042868686866040516102999695949392919061059d565b60405180910390a15b50505050565b8280546102b4906106f9565b90600052602060002090601f0160209004810192826102d6576000855561031d565b82601f106102ef57805160ff191683800117855561031d565b8280016001018555821561031d579182015b8281111561031c578251825591602001919060010190610301565b5b50905061032a919061032e565b5090565b5b8082111561034757600081600090555060010161032f565b5090565b600061035e61035984610649565b610624565b90508281526020810184848401111561037a576103796107c9565b5b6103858482856106b7565b509392505050565b60008083601f8401126103a3576103a26107bf565b5b8235905067ffffffffffffffff8111156103c0576103bf6107ba565b5b6020830191508360018202830111156103dc576103db6107c4565b5b9250929050565b600082601f8301126103f8576103f76107bf565b5b813561040884826020860161034b565b91505092915050565b6000806000806040858703121561042b5761042a6107d3565b5b600085013567ffffffffffffffff811115610449576104486107ce565b5b6104558782880161038d565b9450945050602085013567ffffffffffffffff811115610478576104776107ce565b5b6104848782880161038d565b925092505092959194509250565b6000602082840312156104a8576104a76107d3565b5b600082013567ffffffffffffffff8111156104c6576104c56107ce565b5b6104d2848285016103e3565b91505092915050565b6104e4816106a1565b82525050565b60006104f68385610685565b93506105038385846106b7565b61050c836107d8565b840190509392505050565b60006105238385610696565b93506105308385846106b7565b82840190509392505050565b60006105478261067a565b6105518185610685565b93506105618185602086016106c6565b61056a816107d8565b840191505092915050565b61057e816106ad565b82525050565b6000610591828486610517565b91508190509392505050565b60006080820190506105b260008301896104db565b6105bf6020830188610575565b81810360408301526105d28186886104ea565b905081810360608301526105e78184866104ea565b9050979650505050505050565b60006040820190506106096000830185610575565b818103602083015261061b818461053c565b90509392505050565b600061062e61063f565b905061063a828261072b565b919050565b6000604051905090565b600067ffffffffffffffff8211156106645761066361078b565b5b61066d826107d8565b9050602081019050919050565b600081519050919050565b600082825260208201905092915050565b600081905092915050565b60008115159050919050565b6000819050919050565b82818337600083830152505050565b60005b838110156106e45780820151818401526020810190506106c9565b838111156106f3576000848401525b50505050565b6000600282049050600182168061071157607f821691505b602082108114156107255761072461075c565b5b50919050565b610734826107d8565b810181811067ffffffffffffffff821117156107535761075261078b565b5b80604052505050565b7f4e487b7100000000000000000000000000000000000000000000000000000000600052602260045260246000fd5b7f4e487b7100000000000000000000000000000000000000000000000000000000600052604160045260246000fd5b600080fd5b600080fd5b600080fd5b600080fd5b600080fd5b600080fd5b6000601f19601f830116905091905056fea2646970667358221220da388b31300523814ae012bd9c4bd3422eefd7570fe72ee013dad8d864f9834364736f6c63430008070033",
    "linkReferences": {},
    "deployedLinkReferences": {}
}